:020000040800F2
:10000000680500200101000843240008E1190008E8
:10001000412400088F090008F326000800000000B2
:100020000000000000000000000000001325000890
:10003000910900080000000011250008152500089E
:100040001B0100081B0100081B0100081B01000820
:100050001B0100081B0100081B0100081B01000810
:100060001B0100081B0100081B0100081B01000800
:100070001B0100081B0100081B0100081B010008F0
:100080001B0100081B0100081B0100081B010008E0
:100090001B0100081B0100081B0100081B010008D0
:1000A0001B0100081B0100081B0100081B010008C0
:1000B0001B0100081B0100081B0100081B010008B0
:1000C0001B0100081B0100081B0100081B010008A0
:1000D0001B0100081B0100081B0100081B01000890
:1000E0001B0100081B0100081B010008DFF80CD0F1
:1000F00000F00CFC0048004721340008680500208F
:100100000648804706480047FEE7FEE7FEE7FEE7B1
:10011000FEE7FEE7FEE7FEE7FEE7FEE777250008DD
:10012000ED000008202A04DB203A21FA02F0002129
:10013000704721FA02F3D040C2F1200291400843F7
:1001400019467047D2B201E000F8012B491EFBD2DC
:1001500070470022F6E710B513460A4604461946D2
:10016000FFF7F0FF204610BDF0B480EA0102D40F83
:100170004200B2EB410F02D20246084611464A0045
:1001800042D0C30DDDB2C1F3C752AD1A202D35DA0E
:10019000C1F3160141F4000204B15242C5F1200638
:1001A00002FA06F12A411044B3EBD05F23D0C4B168
:1001B000012DA0EBC35009DCF0BC4FF0004202EA75
:1001C000C352DBB200F5000000F0FDBA400000F1C0
:1001D000807000EBC350A0F1807040EAD1704900FC
:1001E00009E0490841EAC071A0EBC35000F50000E6
:1001F000400800EBC350F0BC00F0DCBA61420122C1
:1002000002EB4101001BF6E7F0BC704781F00041B2
:10021000AAE780F00040A7E780EA010210B502F0EB
:100220000043400022D04A001FD0010E01EB1261B2
:10023000C0F35600C2F3560240F4000042F400023C
:10024000A0FB022000047F39140400D0401C50EAB7
:10025000124001D44000491EC2B20C0604EBD0107B
:10026000401C4008802A02D003E0002010BD20F08E
:100270000100002900DA0020184310BD30B480EAE4
:10028000010202F0004530F0004221F0004013D09E
:1002900090B1C30DD40DC2F31601C0F31600E41AD9
:1002A00041F4000140F400027D34914201D3641C0A
:1002B00000E04900002C02DA30BC002070474FF407
:1002C00000000023914201D3891A034340084FEAFA
:1002D0004101F7D151B1914202D14FF0004105E007
:1002E00002D24FF0010101E06FF0010103EBC450B5
:1002F000284430BC00F05EBA420005D0C0F3C752BB
:100300005242914201DC0020704700EBC15070471F
:100310002DE9FE4F804681EA0300C00F0C46009095
:1003200021F0004123F00045B8EB0200A94105D2BD
:100330004046214690461C460B46024623F00040AC
:10034000104347D0270DC7F30A00C3F30A510290A8
:10035000401A019040286BDAC3F3130040F4801B6D
:100360000098924620B10023D2EB030A63EB0B0BFB
:1003700001985946C0F14002504600F0FAF906468D
:100380000D4650465946019A00F002FA10EB08005B
:100390006141002487EA115284EAE7731A4340D08E
:1003A000009A62B3019A012A4FEA075215DC001B3A
:1003B00061EB02014FF0004202EA0752CDE9004230
:1003C000001C41F5801132462B4600F039FA03B08B
:1003D000BDE8F08F40462146F9E7001B61EB0201C2
:1003E000001C41F5801300185B412018A2F500178E
:1003F00047EB030140EAD570B6196D4111E06D0875
:100400004FEA360645EAC0754FEA0752001B61EB1A
:100410000201001C41F5801149084FEA3000001923
:10042000514132462B4603B0BDE8F04F00F0F9B918
:100430000098012240000023D0EB020263EBE0733E
:10044000009821464FEAE074B8EB000061EB04012C
:10045000E9E783F000435BE781F0004158E72DE9CD
:10046000FE4F81EA030404F0004421F000410094AF
:100470004FF0000B23F0004350EA01045ED052EA33
:1004800003045BD0C3F30A54C1F30A552C44A4F20D
:10049000F3340194A0FB0254C1F3130141F4801121
:1004A000C3F3130343F4801301FB024400FB034E28
:1004B000840A970A44EA815447EA8357A4FB0768F1
:1004C00002958D0A05FB07854FEA932C04FB0C541B
:1004D0002705029D4FEA065847EA1637B5EB08058F
:1004E0006EEB070C870E920E47EA811742EA8312E1
:1004F000A7FB0201B6EB0B0164EB00042B0D43EAF2
:100500000C335E1844EB1C50DA465146E7FB0201FF
:10051000C5F313044FEA0B3343EA14534FEA043292
:10052000019C43EA0603A4F10C040294009CCDE96B
:1005300000B400F085F903B0BDE8F08F002001465B
:10054000F9E72DE9F04D81EA030404F0004B21F0B6
:10055000004514464FF0000A23F0004150EA05021E
:1005600020D054EA01021DD0C5F30A570246C5F354
:100570001303C1F31300C1F30A5640F4801543F48A
:100580008013A7EB0608101BD64608F2FD3873EB64
:10059000050002D308F1010801E092185B41B8F1AF
:1005A000000F03DA00200146BDE8F08D00204FF473
:1005B0008011064684460EE0171B73EB050705D332
:1005C000121B63EB050306434CEA010C49084FEA92
:1005D000300092185B4150EA0107EDD152EA030066
:1005E00012D082EA040083EA0501084305D0101BFB
:1005F000AB4106D20122002306E000224FF0004367
:1006000002E06FF0010253101AEB06004CEB0851A8
:1006100010EB0A0041EB0B01BDE8F04D00F001B911
:10062000C10F80EAE0700844CA079623002100F059
:10063000CAB80EB5C10F80EAE0700844CA070021AD
:1006400040F233438DE80E000A460B4600F0F8F8FE
:1006500003B000BD00F0004230F000400AD0C10DF0
:1006600001F56071C0F3160042EA0151C20840076B
:1006700011437047002001467047000030B5041E4A
:1006800071F1000404DB4FF00044404264EB0101CF
:10069000141E73F1000405DB1C464FF00043524268
:1006A00063EB0403994208BF904230BD01F0004360
:1006B00030B421F0004150EA010206D00A0DA2F543
:1006C0006072C1F31301002A02DC30BC00207047C5
:1006D000440F44EAC104C100E01830BC00EBC25032
:1006E00000F068B830B50B460146002020220124F6
:1006F00009E021FA02F59D4205D303FA02F5491BF0
:1007000004FA02F52844151EA2F10102F1DC30BD05
:100710002DE9F05F0546002092469B468846064636
:10072000814640241BE02846414647462246FFF7C3
:10073000F9FC53465A46C01A914110D31146184647
:10074000224600F016F82D1A67EB01084F462246A4
:100750000120002100F00DF817EB00094E41201E8A
:10076000A4F10104DFDC484631462A464346BDE891
:10077000F09F202A04DB203A00FA02F100207047A3
:100780009140C2F1200320FA03F3194390407047CF
:10079000202A06DBCB17203A41FA02F043EAE07345
:1007A00006E041FA02F3D040C2F120029140084332
:1007B000194670470029A8BF7047401C490008BF70
:1007C00020F00100704710B4B0FA80FC00FA0CF081
:1007D00050EA010404BF10BC704749B1CCF12004B9
:1007E00021FA04F411FA0CF118BF01212143084346
:1007F000A3EB0C01CB1D4FEA00614FEA102042BF72
:10080000002010BC704700EBC35010440029A4BF67
:1008100010BC7047401C490008BF20F0010010BC0C
:10082000704710B5141E73F1000408DA401C41F142
:10083000000192185B411A4301D120F0010010BD64
:100840002DE9F04D92469B4611B1B1FA81F202E0DA
:10085000B0FA80F220329046FFF78BFF04460F4635
:1008600040EA0A0041EA0B0153465A46084313D0B6
:10087000114653EA010019D0C8F140025046FFF773
:1008800051FC05460E46504659464246FFF771FF59
:10089000084305D0012004E020463946BDE8F08D2C
:1008A0000020054346EAE0762C4337430A98630567
:1008B000E40AA0EB08000022FD0A44EA47540A308B
:1008C00002D500200146E9E7010510196941DDE97B
:1008D000084500196941BDE8F04DA2E7C1F30A528D
:1008E000C1F3130140F2FF3341F480119A4202DA5E
:1008F00000200146704740F233439A42A2F233424D
:1009000002DC5242FFF70EBCFFF733BF064C074D27
:1009100006E0E06840F0010394E8070098471034CF
:10092000AC42F6D3FFF7E6FB88350008A83500088F
:10093000F0B4002802DCF0BC00207047C0F3C751BF
:10094000C0F3160040F40000CA0701D14000491E60
:100950003F2202EB6105002211464FF4000626FA01
:1009600001F31344D418844201D8001B1A464000F6
:10097000491C1729F3DD5100814202D24FF0FF31AB
:1009800000E0002102EBC550F0BCFFF713BFFEE70B
:10099000704772B6FEE700002DE9F74F3A4C8346E8
:1009A00021682068FFF738FC384D0646296828681A
:1009B000FFF732FC3146FFF7D7FB0121FFF79CFC24
:1009C0004FF07E5A5146FFF724FC314E8046316885
:1009D0002068FFF721FC296881462E4F3868FFF711
:1009E0001BFC4946FFF7C0FB0121FFF785FC414690
:1009F00002F0C2FBDFF8A0904946FFF70DFCCBF8F0
:100A0000000029683068FFF707FC216880463868D5
:100A1000FFF702FC4146FFF7F9FB0121FFF76CFCF1
:100A200002F018FB4946FFF7F7FB019908603168AF
:100A30003068FFF7F1FB216880462068FFF7ECFB88
:100A40004146FFF791FB0121FFF756FC5146FFF7A6
:100A5000E0FB216880462868FFF7DEFB316804462A
:100A60003868FFF7D9FB2146FFF77EFB0121FFF72E
:100A700043FC414602F080FB4946FFF7CDFB02995B
:100A80000860BDE8FE8F0000080000200400002080
:100A90000C00002000000020E12E654270B50446E5
:100AA00000F0FEF80546601C02D0044800780444BB
:100AB00000F0F6F8401BA042FAD370BD1C000020E5
:100AC0002DE9F84FDFF8B8910024A9F1040B234673
:100AD0000F2709F1040AABF1040EC9E00125A54076
:100AE0002A40AA427DD1674ED1F804C0ACEB06087B
:100AF000B44532D014DCBCF1030F3AD009DCBCF1B0
:100B0000000F2AD0BCF1010F1CD0BCF1020F31D173
:100B10001DE0BCF1110F17D0BCF1120F2AD119E062
:100B2000B8F5881F19D006DCB8F5803F15D0B8F5A8
:100B3000801F1FD111E0B8F5001F0ED0B8F5041FBB
:100B400018D10AE0CB6815E0CB681B1D12E0CB681A
:100B500008330FE0CB680C330CE08B682BB1012B12
:100B60004FF0080303D0456104E0042302E005616F
:100B700000E00023FF2A01D8064601E000F1040648
:100B80004FEA840501D9A5F12005D6F8008007FABF
:100B900005FC28EA0C0803FA05F548EA0508C6F83A
:100BA00000804D68ED0062D5374DAE6946F0010614
:100BB000AE61AD6924F0030605F001050095334DE3
:100BC00006EB050CDCF80850A607360F07FA06F806
:100BD00025EA0805DFF8B880404503D14FF000084A
:100BE00017E044E0DFF8AC80404502D14FF0010847
:100BF0000FE0DFF8A480404502D14FF0020808E082
:100C0000DFF89880404502D14FF0030801E04FF033
:100C1000040808FA06F848EA0508CCF808804D6888
:100C2000D9F80060ED024D4601D5164300E0964329
:100C30002E604D68DAF80060AD02554601D51643C6
:100C400000E096432E604D68DBF80060AD035D4622
:100C500001D5164300E096432E604D68DEF8006033
:100C6000ED03754601D5164300E096432E60641CE3
:100C70000D682A46E5407FF431AFBDE8F88F0000EB
:100C80000804014000001110001002400000014063
:100C900000080140000C0140001001400014014018
:100CA00001488068704700001C00002070B50400F7
:100CB00025D094F83D00002520B984F83C5020460A
:100CC00000F07EFA242084F83D002068016821F0BD
:100CD000010101602068016841F400410160206861
:100CE000016821F40041016000F0D6FB4D4A6168C3
:100CF000914201D84C4900E04C49884201D2012080
:100D000070BD4B492368B0FBF1F15E6826F03F06E9
:100D10000E435E606368934206D94FF4967359435D
:100D20004FF47A73B1FBF3F12368491C1E6A26F075
:100D30003F06314319626168914210D84900401E54
:100D4000B0FBF1F2521CC2F30B02042A01D20420C0
:100D500022E0B0FBF1F0401CC0F30B001CE0A268E5
:100D6000F2B301EBC10303EB0116431EB3FBF6F331
:100D70005B1C43F480431B0549D092B301EBC102D5
:100D800002EB0111401EB0FBF1F0401CC0F30B0060
:100D900040F4804040F400402168CA694CF6FF737B
:100DA0009A431043C861D4E90710014320680268E0
:100DB00022F0C00211430160D4E90301014320681D
:100DC000826848F2FF339A4311438160D4E90501F8
:100DD00008432168CA6822F0FF021043C86001E09E
:100DE0000EE016E02068016841F001010160256411
:100DF000202084F83D00256384F83E50002070BD1B
:100E000001EB4106431EB3FBF6F35B1CB3E7012085
:100E1000C2E701EB4101401EB0FBF1F0401CC0F302
:100E20000B00B7E7A086010080841E0000093D008A
:100E300040420F002DE9FF4F83B00025DDE9107916
:100E40009A4693460446DDF848800095FFF728FF50
:100E5000064694F83D0020287CD1192301228849B8
:100E60002046009600F0D2FE0028F5D194F83C0010
:100E700001286FD0012084F83C0020680168C90770
:100E800003D1016841F0010101602068016821F48B
:100E900000610160222084F83D00402084F83E007B
:100EA00025646762A4F82A90608D20857548E06209
:100EB000CDE9008653465A462046049900F0A8FD25
:100EC00000287CD1208DDFF8C091202768B101284F
:100ED00014D00228206801681ED041F480610160AE
:100EE0002068416980690090BCE02068416981699F
:100EF0000091016841F400710160B3E0206801686D
:100F000021F48061016072B62068416981690091B5
:100F1000016841F400710AE041F40061016072B6B9
:100F20002068416981690091016821F48061016054
:100F300062B697E0032865D801280CD00228434602
:100F40004FF000024946204600960BD000F05EFEAE
:100F5000A8BB0CE091E032464146204600F0FCFE82
:100F600068BB72E000F052FE48BB72B633E0206806
:100F7000016821F48061016072B620680069616ACD
:100F80000870606A401C6062208D401E2085608D64
:100F9000401E60853D4846F2A8110068B0FBF1F0A4
:100FA000C0EBC00000EB80000090401E009007D016
:100FB00020684069C04340070DD50098F5E727E059
:100FC00044F8305F6773A573206940F0200020610A
:100FD00062B625731CE02068016841F4007101606D
:100FE00020680069616A0870606A401C6062218D37
:100FF000491E2185618D491E618562B62168096996
:10100000017026E032464146204600F0A5FE18B1A8
:10101000012007B0BDE8F08F20680069616A0870A0
:10102000606A401C6062208D401E81B22185608D07
:10103000401E608520684269D243520712D40329BA
:1010400003D1016821F48061016020680069616A50
:101050000870606A401C6062208D401E2085608D93
:10106000401E6085208D00287FF464AF84F83D70B9
:1010700084F83E5084F83C50CBE70220C9E70000DA
:10108000020010000000FFFF040001002800002003
:101090002DE9FF4F83B09A46DDE911979346044648
:1010A000DDF84080FFF7FCFD054694F83D00202860
:1010B0007FD11923012240492046009500F0A6FD6A
:1010C000002876D194F83C00012872D0012084F8E1
:1010D0003C0020680168C90703D1016841F00101A3
:1010E00001602068016821F400610160212084F81A
:1010F0003D00402084F83E0000262664C4F8248089
:10110000A4F82A90608D20852C48E062CDE9007516
:1011100053465A462046049900F0F8FC70B930E076
:101120002A463946204600F04FFE58B1206C04286C
:1011300004D12068016841F400710160012007B00A
:10114000BDE8F08F606A216800780861606A401C21
:101150006062218D491E89B22185628D521E628591
:1011600022685369DB435B070BD469B100781061D7
:10117000606A401C6062208D401E2085608D401E8C
:101180006085208D0028CBD12A463946204600F0C4
:1011900011FD0028CAD154F83D0B016841F40071DB
:1011A0000160202004F81E09E67766770020C6E774
:1011B000FFE70220C3E70000020010000000FFFF6D
:1011C00030B585B0002100910191029103911E4D2F
:1011D00003681E4C122103221D48AB4216D1A3699D
:1011E00043F00803A361A369039203F00803049387
:1011F000C023CDE900316946FFF762FCE06940F4A5
:101200000010E061E06900F4001019E0114DAB42FC
:1012100017D1A36943F00803A361A369039203F004
:10122000080304934FF44063CDE900316946FFF7AA
:1012300047FCE06940F48000E061E06900F4800070
:10124000049005B030BD0000005400400010024082
:10125000000C0140005800400248816802781144A7
:10126000816070471C000020074810B5016841F0FC
:1012700010010160032000F067F80F2000F006F86D
:1012800000F024F8002010BD0020024070B50D4D84
:1012900004464FF47A712878B1FBF0F00A490968E6
:1012A000B1FBF0F000F0CEFA48B9102C07D20022C2
:1012B0002146501E00F028F800206C6070BD01200F
:1012C00070BD00001C000020280000200C4808B55C
:1012D000816941F001018161816901F001010091A1
:1012E000C16941F08051C161C06900F08050009037
:1012F0000448416821F0E06141F00071416008BD9F
:101300000010024000000140F0B40E4B1B680C4678
:10131000C3F30223C3F10705042D00D90425191DC9
:10132000072901D2002300E0DB1E012606FA05F1A1
:10133000491E214099409E40761E16403143F0BC24
:1013400001F0FBB90CED00E0064900F00702086867
:101350004FF6FF03184040EA0220034A104308609A
:10136000704700000CED00E00000FA052DE9F047A1
:101370000F46050061D0434E306800F00700B842C8
:1013800009D2306820F0070038433060306800F040
:101390000700B84251D128683B4C810712D540075D
:1013A00003D5606840F4E06060602878000703D5EA
:1013B000606840F4605060606068A96820F0F000E8
:1013C000084360602878C00728D06868012810D0DA
:1013D0002168022810D0890700292EDA616821F0DF
:1013E000030101436160FFF75BFC804641F28839ED
:1013F0000DE021688903EFE78901EDE7FFF750FC75
:10140000A0EB0801494502D90320BDE8F0876068D8
:10141000696800F00C00B0EB810FEFD1306800F08C
:101420000700B8420BD9306820F00700384330601D
:10143000306800F00700B84201D00120E5E72878C5
:10144000400705D56068E96820F4E0600843606003
:101450002878000706D56068296920F4605040EAC2
:10146000C100606000F038F86168084AC1F30311F8
:10147000515CC8400649086006480068FFF706FF4F
:101480000020C2E700200240001002406E35000834
:101490002800002020000020044805490068496811
:1014A000044AC1F30221515CC84070472800002063
:1014B000001002407E35000804480549006849686C
:1014C000044AC1F3C221515CC84070472800002083
:1014D000001002407E3500080E4A51680E4801F0A7
:1014E0000C03042B11D0082B0FD10C48C1F38343FC
:1014F000C903C05C0AD55168084AC1F34041921E35
:10150000515C054A5043B0FBF1F070470449484331
:10151000704700000010024000127A005E3500089B
:1015200000093D002DE9F84F040070D02078C04D2F
:10153000C00749D06868C0F38100012807D06868F7
:10154000C0F38100022809D16868C00306D5286865
:10155000800339D560680028E7D035E06068B0F5D1
:10156000803F0BD010B1B0F5A02F11D0286820F427
:1015700080302860286820F4802002E0286840F449
:1015800080302860606890B1FFF78AFB06460AE069
:10159000286840F480202860F0E700BFFFF780FB58
:1015A000801B642873D828688003F7D50CE0FFF708
:1015B00077FB064605E000BFFFF772FB801B64283F
:1015C000F0D828688003F7D420789A4E80074FF02F
:1015D00001094FF0000839D5686810F00C0F07D0EA
:1015E0006868C0F38100022809D16868C00306D486
:1015F0002868800714D52069012808D110E02069E7
:10160000B0B1C6F80090FFF74BFB074605E00AE1D2
:10161000FFF746FBC01B0228C4D828688007F7D50F
:101620002868616920F0F80040EAC10028600DE0F8
:10163000C6F80080FFF734FB074604E0FFF730FBF5
:10164000C01B022823D828688007F7D42078000719
:101650002CD57948A169D9B1C0F80090FFF720FBDB
:10166000074604E0FFF71CFBC01B02280FD8686A7E
:101670008007F7D571484FF4FA510068B0FBF1F0DC
:10168000009000BF0098411E0091FAD20EE080E069
:10169000C0F80080FFF704FB074604E0FFF700FBFB
:1016A000C01B022875D8686A8007F7D420784007E5
:1016B00060D5E8690027C00008D4E86940F0805090
:1016C000E861E869012700F0805000905C480168FB
:1016D000C90513D40168834641F480710160FFF7A6
:1016E000DFFA824606E000BFFFF7DAFAA0EB0A0055
:1016F00064284ED8DBF80000C005F5D5E068012865
:101700000AD008B1052813D0286A20F00100286209
:10171000286A20F0040002E0286A40F001002862F4
:10172000E06841F2883B98B1FFF7BAFA82460BE0D5
:10173000286A40F004002862EEE700BFFFF7B0FA25
:10174000A0EB0A0159455AD8286A8007F6D50CE063
:10175000FFF7A6FA824605E0FFF7A2FAA0EB0A011E
:1017600059454CD8286A8007F6D41FB1E86920F0A3
:101770008050E861E06988B36968C1F3810102299A
:1017800044D00228C6F8608004D0FFF789FA0446E6
:1017900038E034E0FFF784FA074604E0FFF780FA08
:1017A000C01B02282BD828688001F7D4206AB0F526
:1017B000803F05D16868A16820F400300843686064
:1017C000D4E908010843696821F47411084368608A
:1017D000C6F86090FFF764FA044606E025E000BF13
:1017E000FFF75EFA001B022809D828688001F7D5A8
:1017F0001BE000BFFFF754FA001B022802D90320A8
:10180000BDE8F88F28688001F4D40EE00128F7D0F5
:101810006868226A00F48031914204D1616A00F460
:101820007010884201D00120EAE70020E8E70000BC
:101830000010024000004242800442422800002082
:101840000070004010B5401EB0F1807F01D3012030
:1018500010BD4FF0E02460610F21601700F06DFFB4
:101860000020A06107202061002010BD70B5040099
:1018700004D094F84100002510B106E0012070BDAD
:1018800084F84050204600F023F8242084F84100DA
:101890002068C16821F40051C160204600F094FE28
:1018A0002068016921F4904101612068416921F0BB
:1018B0002A0141612068C16841F40051C16065643A
:1018C000202084F8410084F842006563002070BD48
:1018D00030B585B00024009401940294039400680C
:1018E0001449884224D11448816941F480418161BE
:1018F000816901F480410491816941F004018161B1
:1019000080690E4D00F0040004904FF400700090C8
:10191000022001900320039069462846FFF7D0F883
:101920002815CDE90004694628460294FFF7C8F857
:1019300005B030BD003801400010024000080140F1
:101940002DE9F843044690F84100984616460D46A6
:10195000202802D00220BDE8F88385B17EB10020A6
:101960006064212084F84100FFF79AF9A68481463B
:10197000E684A0682027B0F5805F02D003E0012054
:10198000E9E7206910B12E4600250EE000260CE0A4
:101990008021204600F074FEA8B9C6B116F8010BEC
:1019A00021684860E08C401EE084E08C4B464FF09C
:1019B0000002CDF800800028EAD14FF04001204617
:1019C00000F05EFE40B184F841700320C3E735F8B3
:1019D000020BC0F30800E3E784F841700020BAE787
:1019E000FEE701684A69D24352050FD46FF4806262
:1019F0004A61002140F8301F20224273817302693E
:101A000042F0040202610173012070470020704718
:101A10002DE9F84F0446006889460B9D01689846F9
:101A2000174641F4806101602068016841F48071CB
:101A3000016000954FF0011B0022594620460A9B89
:101A400000F0E4F84FF4007A40B120680068C00567
:101A500001D5C4F840A00320BDE8F88F216809F043
:101A6000FE0008612B46284920460A9A00F016F924
:101A7000F0BB20684169806900902A4620460A9997
:101A800000F0A2F940B1206C04283AD12068016826
:101A900041F40071016034E0FEB2B8F1010F09D0E9
:101AA0002168380A08612A4620460A9900F08CF914
:101AB0000028E8D1206806612A4620460A9900F0ED
:101AC00083F90028DFD12068016841F4807101604A
:101AD00000950022594620460A9B00F097F80028FE
:101AE000B3D1216809F0FF0040F00100086100E077
:101AF00007E02B46044920460A9A00F0CFF8002858
:101B0000AAD00120A8E70000020001002DE9F84357
:101B1000044600680D46DDE90897016898461646B8
:101B200041F4807101604B4600224FF001112046C4
:101B3000009700F06BF848B120680068C00502D536
:101B40004FF4007020640320BDE8F883216805F09D
:101B5000FE0008613B464A461549204600F09EF8C3
:101B600088B920684169806900903A464946204614
:101B700000F02AF948B1206C042804D120680168DB
:101B800041F4007101600120DEE7F5B2B8F1010F08
:101B900009D02168300A08613A464946204600F0DB
:101BA00013F90028E7D1206805610020CCE7000088
:101BB0000200010070B516460D4604461EE02046A0
:101BC000FFF70FFF08B1012070BD681C16D0FFF7AA
:101BD00067F8801BA84200D885B920684069C043D7
:101BE00040070BD5002044F8300F20216173A0730B
:101BF000216941F0200121612073E4E720684069F8
:101C0000C0434007DBD4002070BD00002DE9F04741
:101C1000984617460D460446C1F30746DDF8209066
:101C20002AE000BFB8F1FF3F26D0FFF739F8A0EB5C
:101C30000901414502D8B8F1000F1DD12068012EDD
:101C400016D0806925EA00000004000C12D00020A4
:101C5000B84211D1002044F8300F20216173A073E5
:101C6000216941F02001216120730120BDE8F08746
:101C70004069E7E70120EBE72068012E0AD0806980
:101C800025EA00000004000C06D00020B842C9D0AC
:101C90000020EBE74069F3E70120F7E72DE9F04783
:101CA000984616460D4604464FF000094FF0200AAC
:101CB000C1F3074723E020684069C043400515D4BD
:101CC0002068016841F40071016021686FF4806050
:101CD0004861C4F8309084F83DA084F83E90216CAF
:101CE00041F00401216484F83C9021E0701C06D08E
:101CF000FEF7D6FFA0EB0800B04203D816B1012FC3
:101D00001FD021E02068012F15D0806925EA00004E
:101D10000004000C18D000BF44F8309F84F80DA0D8
:101D200084F80E90216941F02001216184F80C9023
:101D30000120BDE8F087406925EA00000004000C9E
:101D4000EAD12068406901E02068806925EA000046
:101D50000004000CAFD1ECE72DE9F04100259046DE
:101D60000E460446202728E04069C043C0060CD434
:101D700054F8301B6FF01000486144F81059677731
:101D8000A577206A2062257714E0FEF789FFA0EB93
:101D90000800B04200D886B920684069C0434006B8
:101DA0000BD544F8305F6773A573206940F02000BD
:101DB000206125730120BDE8F08120684169C94395
:101DC0004906D1D40020F6E770B516460D46044604
:101DD0001EE02046FFF705FE08B1012070BD681C1B
:101DE00016D0FEF75DFF801BA84200D885B9206899
:101DF0004069C04300060BD5002044F8300F202175
:101E00006173A073216941F0200121612073E4E72F
:101E100020684069C0430006DBD4002070BD70B567
:101E200004463C2000F062F805463B2000F05EF8D6
:101E300045EA002020803E2000F058F805463D206D
:101E400000F054F845EA00206080402000F04EF891
:101E500005463F2000F04AF845EA0020A0804220D5
:101E600000F044F80546412000F040F845EA002023
:101E7000A081442000F03AF80546432000F036F8EF
:101E800045EA0020E080462000F030F80546452075
:101E900000F02CF845EA00202081482000F026F8C8
:101EA0000546472000F022F845EA0020608170BD19
:101EB00010B580216B2000F08DF86420FEF7EEFD58
:101EC00000216B2000F086F800211A2000F082F833
:101ED0002721192000F07EF818211B2000F07AF845
:101EE0000021BDE810401C2000F074B81FB54FF46D
:101EF0007A73012203A98DE80E0013460246D02111
:101F00000348FEF797FF9DF80C0004B010BD0000D9
:101F1000B80000202DE9F04104462948FFF77FFF73
:101F2000274DB5F90000FEF77BFB6FF00D0631463B
:101F3000FEF7E2F92060B5F90200FEF771FB3146C9
:101F4000FEF7DAF96060B5F90400FEF769FB314687
:101F5000FEF7D2F9A060B5F90C004FF4AA7190FB1E
:101F6000F1F0FEF766FB174A174BFEF7D1F9FEF7C3
:101F70009DFBA061B5F90600FEF752FB134E3146FA
:101F8000FEF77CF9124F3946FEF746F9E060B5F9E5
:101F90000800FEF745FB3146FEF770F93946FEF7BB
:101FA0003BF92061B5F90A00FEF73AFB3146FEF72E
:101FB00065F93946FEF730F96061BDE8F08100004F
:101FC00054010020A4703D0AD7434240333383417B
:101FD00034FA8E3C03B583B04FF47A73012204A91E
:101FE0008DE80E0013460246D0210248FFF750F854
:101FF00005B000BDB80000200D4808B5816941F06A
:1020000020018161816901F020010091816941F025
:1020100008018161816901F008010091816941F045
:1020200004018161806900F00400009008BD000097
:10203000001002400D4810B50B4901600C49416089
:1020400000214FF480428160C0E903124161816147
:10205000C1610162FEF72AFE002803D0BDE81040EE
:10206000FEF797BC10BD0000005400406400002043
:10207000A08601000D4810B50B4901600C49416074
:1020800000214FF480428160C0E903124161816107
:10209000C1610162FEF70AFE002803D0BDE81040CE
:1020A000FEF777BC10BD000000580040B8000020CB
:1020B000A08601000C4810B50A4901604FF4E131D7
:1020C0004160002181600C22C160C0E9041281617D
:1020D000C161FFF7CBFB002803D0BDE81040FEF73D
:1020E00058BC10BD003801400C0100202DE9FF4F05
:1020F00083B0DFF83093DDE910650698CA4CDFF84D
:102100002CB3DFF82C83924610F0FF4F05D116F068
:10211000FF4F02D115F0FF4F7ED029462846FEF72B
:102120007BF8314600900846FEF776F80699074698
:102130000846FEF771F83946FEF716F80099FEF7E3
:1021400013F801F053F9074601460698FEF764F8C4
:10215000069039463046FEF75FF81090394628461B
:10216000FEF75AF81190D9F800104E462068FEF795
:1021700053F8DBF8001007465D46D8F80000FEF77C
:102180004BF83946FEF742F8296807463068FEF7F3
:1021900043F8D8F8001006462068FEF73DF83146AF
:1021A000FDF7E2FF296806462868FEF735F8216842
:1021B00005462068FEF730F84FF07C51FEF726F810
:1021C0002946FDF7D1FF054631461198FEF724F860
:1021D000009029461098FEF71FF80099FEF716F8B0
:1021E000019029460698FEF717F8054639461198DA
:1021F000FEF712F82946FEF709F8009039461098C4
:10220000FEF70AF8054631460698FEF705F8294616
:10221000FDF7FCFF064600E052E0864D6868B0F529
:10222000000F31DB01996868FDF7F6FF824F3946F0
:10223000FDF7F2FFA968FDF797FFA86000996868AD
:10224000FDF7EAFF3946FDF7E7FFE968FDF78CFF88
:10225000E86031466868FDF7DFFF3946FDF7DCFFCF
:102260002969FDF781FF2861A9680398FDF77CFFC4
:102270000390E9680498FDF777FF049029695046B8
:10228000FDF772FF824603E00020A860E860286145
:1022900001992868FDF7C0FF0399FDF765FF0390DA
:1022A00000992868FDF7B8FF0499FDF75DFF0490D9
:1022B00031462868FDF7B0FF5146FDF755FF8246CD
:1022C0005E4D03982946FDF7A7FF03902946049821
:1022D000FDF7A2FF049029465046FDF79DFF0590AB
:1022E000D4F800A04646D8F800804F46D9F80090B0
:1022F00001465D46DBF80000FDF78EFF0090484682
:102300000499FDF789FF834688F000400399FDF7A3
:1023100083FF5946FDF77AFF0099FDF777FF2168A3
:10232000FDF722FF206004992868FDF775FF0090F3
:1023300048460599FDF770FF834651460398FDF71F
:102340006BFF5946FDF710FF0099FDF75FFF3168FD
:10235000FDF70AFF306029680398FDF75DFF0090E4
:1023600040460599FDF758FF834650460499FDF70E
:1023700053FF5946FDF74AFF0099FDF7F5FE39680E
:10238000FDF7F2FE386049460398FDF745FF8146A8
:1023900040460499FDF740FF804650460599FDF7F9
:1023A0003BFF4146FDF7E0FE4946FDF72FFF296858
:1023B000FDF7DAFE286029682868FDF72DFF3968E7
:1023C00082463868FDF728FF316881463068FDF79E
:1023D00023FF216880462068FDF71EFF4146FDF778
:1023E000C3FE4946FDF7C0FE5146FDF7BDFE00F0B5
:1023F000FDFF804601462068FDF70EFF2060414644
:102400003068FDF709FF306041463868FDF704FF8A
:10241000386041462868FDF7FFFE286007B0BDE838
:10242000F08F000008000020000000200C000020B9
:10243000040000202C0000200AD7A33B0AD7233B2E
:10244000FEE7FEE710B500204FF47A720021491C28
:1024500089B29142FBD3401C80B29042F6D3AE20A9
:1024600000F044F8D52000F041F8802000F03EF85C
:10247000A82000F03BF83F2000F038F8D32000F00F
:1024800035F8002000F032F8402000F02FF8A120AD
:1024900000F02CF8C82000F029F8DA2000F026F827
:1024A000122000F023F8812000F020F8CF2000F067
:1024B0001DF8D92000F01AF8F12000F017F8DB2001
:1024C00000F014F8302000F011F8A42000F00EF80D
:1024D000A62000F00BF88D2000F008F8142000F082
:1024E00005F8BDE81040AF20AFF3008001B584B01F
:1024F00001214FF4FA7204A88DE807000B46002270
:1025000078210248FEF7C4FD05B000BD640000203C
:1025100070477047FEF7A0BE30B58FB028216846DF
:10252000FDF717FE14210AA8FDF713FE0121080488
:10253000CDE900100024029402250491CDE9075052
:102540004FF4E01009906846FEF7ECFF08B172B650
:10255000FEE70F20CDE90A054FF48060CDE90C407D
:1025600002210AA80E94FEF701FF002801D072B6DE
:10257000FEE70FB030BD704701680C3151E8002F05
:1025800022F4907241E80023002BF5D10168143148
:1025900051E8002F22F0010241E80023002BF5D181
:1025A000016B012909D101680C3151E8002F22F09B
:1025B000100241E80023002BF5D1202180F84210C1
:1025C000002101637047000070B50446006801698E
:1025D000E26821F44051114301612169A068084378
:1025E000616908432168CA6841F20C639A43024357
:1025F000CA6020684169A26921F4407111434161B8
:102600001E492068884202D1FEF756FF01E0FEF71E
:1026100043FF00EBC00101EB001260686421800001
:10262000B2FBF0F3B3FBF1F36FF018067343B2FBA8
:10263000F0F5B2FBF0F605EB8305322303EB05154D
:10264000B5FBF1F5B6FBF1F605F0F00505EB061567
:10265000B2FBF0F6B2FBF0F0B0FBF1F06FF0180255
:10266000504306EB800003EB0010B0FBF1F0216853
:1026700000F00F002844886070BD00000038014061
:102680002DE9F843984617460D460446089E24E077
:10269000701C22D0FEF704FBA0EB0800B0421AD851
:1026A000CEB12068C168490717D5802D15D0402DBF
:1026B00013D00168C94309070FD401680025406899
:1026C00000902046FFF758FF0820606484F84050CF
:1026D0000120BDE8F8830320FBE72068006835EAA5
:1026E000000004D00020B842D2D00020F1E7012041
:1026F000F9E7FEE70FB4054B10B503A9044A0298A9
:1027000000F010F910BC5DF814FB0000D533000890
:10271000400000204100080218BF04200A0E18BF24
:1027200040F001004FF07F4232EA010108BF40F063
:102730000200012808BF052070470907090E00287C
:1027400004DB00F1E02080F80014704700F00F0077
:1027500000F1E02080F8141D70470121FDF7CCBD89
:10276000FDF702BD00210846FDF788BD6FF05E0150
:102770000807FDF7C1BD02E008C8121F08C1002A02
:10278000FAD170477047002001E001C1121F002AF2
:10279000FBD17047014908607047000044000020E9
:1027A0002DE9FF5F82B00021DDE90430020DDDF884
:1027B00040B0034318D044F61050A2F2FF32424317
:1027C0001514119801281FD0A5EB0B00401C5FEADF
:1027D000000A4FF000064E4FDFF83891B0465046E1
:1027E00015D5CAF1000413E0119801244AA3012869
:1027F00001D16FEA0B010298119AC0E90031C0E9DA
:10280000024206B0BDE8F09FCBF10000DFE70446CE
:102810000021404A491842EB0450CDE9001012E073
:10282000E00707D032463B4640464946FDF717FED3
:102830008046894632463B4610461946FDF70FFE54
:1028400006460F466410002CEAD1DDE90401DDE9FB
:102850000023BAF1000F06DAFDF701FE42464B46AF
:10286000FDF7FDFD05E0FDF76CFE42464B46FDF72A
:1028700068FE04460E460022284BFDF7FFFE03D8F3
:102880004FF0FF30014607E00022254B204631463D
:10289000FDF73EFDFEF722F8102409E0002C0ADBCC
:1028A0000A220023FDF734FF039B30321A55641EC1
:1028B00050EA0102F2D1641C039AC4F111031444DA
:1028C000119A012A03D0012208430DD10AE00843DE
:1028D00004D000204FF0110B119072E7A3EB0B0511
:1028E0006D1E0DE05B4504DD4FF0000205F10105B2
:1028F00004E003DA4FF00002A5F10105002AECD054
:1029000002981199C0E90231C0E9004579E7000059
:10291000000014400000F03F300000000000F043D1
:102920000000E03F2DE9FF4F95B09B4689460646E3
:1029300000250FE2252877D100242746F84A0121F7
:10294000059400E0044316F8013F203B01FA03F030
:102950001042F7D130782A2811D06FF02F03307849
:10296000A0F13002092A16D8059A44F0020402EBBD
:10297000820203EB42021044761C0590EFE759F8FF
:10298000042B0592002A03DA504244F400540590C7
:1029900044F00204761C30782E2816D116F8010F68
:1029A00044F004042A280DD06FF02F023078A0F1F3
:1029B0003003092B09D807EB870302EB4303C71841
:1029C000761CF3E759F8047B761C30786C280FD01E
:1029D00006DC4C2817D068280DD06A2814D104E0F2
:1029E000742810D07A280FD10DE044F400140AE0C6
:1029F00044F4801401E044F440147278824202D11D
:102A000004F58014761C761C307866280BD013DC15
:102A1000582877D009DC002875D04528F6D04628FC
:102A2000F4D047281AD19DE118E0632835D06428F6
:102A300079D0652812D195E1702873D008DC672819
:102A4000F1D069286FD06E280DD06F2806D1B5E07F
:102A500073282CD0752875D0782874D05A461799C9
:102A600090476D1C75E1C4F30250022809D0032879
:102A70000DD0D9F8001004280DD00D6009F104091B
:102A800067E1D9F80010EA17C1E90052F6E7D9F872
:102A900000100D80F2E70D70F0E719F8041B8DF8B7
:102AA000001000208DF80100EA46012003E059F8EB
:102AB00004AB4FF0FF3061074FF0000102D40DE08E
:102AC00008F101018846B9420FDA8045F8DB1AF8AF
:102AD00008100029F4D108E008F10101884681427C
:102AE000FADB1AF808100029F6D105985B46A0EB2E
:102AF000080721463846179A00F094FA284400EB5C
:102B0000080507E04DE029E10DE01AF8010B5A46EF
:102B100017999047B8F10108F7D25B46214638462D
:102B2000179A13E142E00A220092C4F302524FF0D6
:102B3000000A022A08D059F804CB032A4FEAEC71A4
:102B40000AD00DE029E02AE009F1070121F007028F
:102B5000F2E802C1914609E00FFA8CFC4FEAEC71F1
:102B6000042A03D14FFA8CFC4FEAEC71002907DAF2
:102B70000A460021DCF1000C61EB02012D2202E08B
:102B8000220504D52B228DF80420012203E0E20760
:102B900001D02022F7E7904659E00A2102E01022F6
:102BA0000DE010214FF0000A00910BE010224FF0D1
:102BB000000A44F004040827009203E008224FF0C2
:102BC000000A0092C4F30252022A05D059F804CB3D
:102BD0000021032A08D009E009F1070121F00702CA
:102BE000F2E802C1914605E01FFA8CFC042A01D1EB
:102BF0000CF0FF0C4FF00008220728D5702806D0F3
:102C0000009B83F0100353EA0A0305D00EE0402234
:102C10008DF80420012208E05CEA010206D030228F
:102C20008DF804208DF8050002229046009B83F069
:102C3000080353EA0A030AD15CEA010201D16207E0
:102C400005D530228DF804204FF001087F1E58284A
:102C500004D034A003900EA802900DE036A0F9E74E
:102C600053466046009AFDF753FD84460398825C04
:102C70000298401E029002705CEA0100F0D10298B6
:102C800006A9081A00F1200A600702D524F480344E
:102C900000E00127574502DDA7EB0A0000E0002015
:102CA00000EB0A01009005984144401A0590E003AA
:102CB00006D45B462146179A059800F0B3F90544FF
:102CC000002706E001A85A46C05D179990476D1C81
:102CD0007F1C4745F6DBE0030CD55B462146179A7F
:102CE000059800F09FF9054404E030205A461799F2
:102CF00090476D1C0099481E00900029F5DC08E003
:102D0000029802995A460078491C029117999047F7
:102D10006D1CBAF10001AAF1010AF1DC65E10000C5
:102D200009280100303132333435363738396162A1
:102D30006364656600000000303132333435363765
:102D400038394142434445460000000000F058F93C
:102D50000544761C307800287FF4ECAD19B0284685
:102D6000BDE8F08F620700D4062709F1070222F0C0
:102D7000070CFCE80223E14603F000485FEA080C78
:102D800002D00FF2702C0DE05FEA045C02D50FF266
:102D9000682C07E05FEAC47C02D00FF2602C01E0EF
:102DA000AFF2700C4FF0FF3823F00043CDF850C065
:102DB00065280CD006DC452809D046281DD04728B8
:102DC0003DD13DE0662818D067287ED138E000214B
:102DD000112F01DB112000E0781CCDE9000106A9CC
:102DE0000EA8FFF7DDFCDDE90F010E9A039100212B
:102DF000009207F1010A04914DE04FF00040009766
:102E0000CDE9011006A90EA8FFF7CAFCDDE90F0203
:102E100003920E9B11990022DDF80CA000930492FE
:102E200011B9791C00EB010AB7EB0A0004D4C0F118
:102E3000FF3007F1010A0490AAEB0700019044E07B
:102E4000012F00DA01270021112F01DD112000E000
:102E50003846CDE9000106A90EA8FFF7A1FCDDE97F
:102E60000F010E9A0391002104910092BA462107A6
:102E70000CD40399514500DA8A46BAF1010F05DDF9
:102E8000009AAAF10101515C302908D0B84202DA57
:102E900010F1040F06DA0121CDE9011015E0AAF1C5
:102EA0000101E9E7002805DC049901440491AAEB3B
:102EB000000102E0411C514500DD8A460499401A98
:102EC000401C01904FF000400290200704D401986C
:102ED000504501DBCDF8048000208DF84F000298AA
:102EE0000DF14F07B0F1004F25D02B200E90029826
:102EF0004FF0020800280CDA404202902D200E907C
:102F000007E00A210298FDF7EDFB3031029007F847
:102F1000011DB8F10001A8F10108F2DC02980028B7
:102F2000EFD1791E0E980870307800F0200040F044
:102F3000450007F8020D12A8C01B00F107081498FD
:102F4000007800B1012000EB0A01019801EBE0716B
:102F500005984144401A401E0590E00306D45B46A4
:102F60002146179A059800F05DF8054414980078FA
:102F700018B15A46179990476D1CE00324D55B465B
:102F80002146179A059800F04DF805441CE0049876
:102F9000002807DBDDE90301884203DD0098405C7F
:102FA000179901E0179930205A469047049805F187
:102FB0000105401C04900198401E019004D12E2070
:102FC0005A46179990476D1CBAF10001AAF1010AFF
:102FD000DDDC05E017F8010B5A46179990476D1C88
:102FE000B8F10001A8F10108F4DC5B462146179A0C
:102FF0000598ABE62D0000002B000000200000002B
:103000002DE9F041044600251E461746880404D4E5
:1030100005E039462020B0476D1C641EF9D52846CE
:10302000BDE8F0812DE9F041044600251E4690469A
:10303000C80301D5302700E02027880404D505E027
:1030400041463846B0476D1C641EF9D52846BDE898
:10305000F08100002DE9F04104464FF00E4000EBF6
:103060004400B0F1506F204655D84FF0FC41B1EB11
:10307000440F1CD224F000404FF07E51FDF7C9F8F8
:103080004FF0FF31FDF738F9054600F051FA14F022
:10309000004F1DBF2F4F304E80F000402F4F08BF14
:1030A0002F4E4FF04041FDF7B7F8044605E00027EA
:1030B0003E460146FDF7B0F805462A492846FDF789
:1030C000ABF82949FDF750F82946FDF7A5F827493F
:1030D000FDF74AF82946FDF79FF82549FDF744F822
:1030E0002946FDF799F82349FDF73EF88046294621
:1030F0002046FDF791F84146FDF78EF8054631462A
:103100002046FDF731F82946FDF72EF83946BDE88F
:10311000F041FDF729B84FF0E441B1EB440F08D975
:10312000FFF7F8FA042808BFFFF720FB2046BDE8A8
:10313000F0814FF07F41B1EB440F03D2BDE8F04185
:10314000FFF70BBB0120FFF725FBBDE8F041FFF7C0
:1031500009BB00000000C9BF22AAFDB90000C93F99
:1031600022AAFD3924FE1C3DC78AD83C1E67383D83
:103170001B93993DAFAA2A3E2DE9F0474FF06842D4
:1031800002EB40030C460546B3F1654F3CBF02EB32
:103190004102B2F1654F7CD2C0F3C753C1F3C752AD
:1031A0009A1A1B2A06DD10F0004F14BF76487748A4
:1031B000BDE8F08712F11A0F17DA11F0004F06D0B0
:1031C00010F0004F0CBF72487248BDE8F0872146EE
:1031D0002846FDF753F80446FFF79CFA042808BF79
:1031E000FFF7C4FA2046BDE8F0874200B2EB410F7A
:1031F00025D910F0004F19BF674F684E684F694ED0
:10320000224685F0004415460A4680F000411046EB
:103210000A1A5200B2F1807F40D248406249DFF87A
:103220008CA110F0004F18D04FF03F483846FCF703
:10323000EDFF074651463046FCF7E8FF17E011F076
:10324000004F04BF00263746E2D010F0004F19BFF0
:10325000574F584E584F594EDAE74FF07C58384682
:10326000FCF782FF074651463046FCF77DFF0646D5
:1032700041462846FCF7D0FF2146FCF775FF824601
:1032800021464046FCF7C8FF2946FCF7C2FF5146DD
:1032900000E037E0FCF7F2FF044604E02146284650
:1032A000FCF7ECFF04460146FCF7B6FF80464449B4
:1032B000FCF7B2FF4349FCF757FF4146FCF7ACFF70
:1032C0004149FCF751FF4146FCF7A6FF3F49FCF797
:1032D0004BFF4146FCF7A0FF3D49FCF745FF054683
:1032E00041462046FCF798FF2946FCF795FF3146FA
:1032F000FCF73AFF2146FCF737FF3946BDE8F047B7
:10330000FCF732BF4FF07F42B2EB400F28BFB2EB69
:10331000410F03D2BDE8F047FFF722BA40EA0103AC
:103320005B0008BF44F0FF410AD0B2EB400F08BF7A
:10333000B2EB410F06D125F0804024F080410546D4
:103340000C4629E7B2EB400F12BF5FEA410245F09D
:10335000FF4004F000413FF41FAF4A0092EA4003EF
:103360003FF51AAF002AACBF4FF09F464FF03E56D4
:103370003146FCF751FF054631462046FCF74CFF2D
:1033800004462846214607E7DB0FC9BFDB0FC93FCC
:10339000DB0F4940DB0F49C00000C9BF22AAFDB9BD
:1033A0000000C93F22AAFD390060ED3EC30ACE37B6
:1033B000000049C022AA7DBA0000494022AA7D3AF5
:1033C0002DAD65BD8FB8D53D0FB511BE61C84C3E62
:1033D000A8AAAABE13B54FF4FA730122694602489F
:1033E000FEF7AEFA00981CBD0C01002010B5044693
:1033F0004FF0FF31FCF780FF0849A1EB6404214640
:10340000FCF70AFF2146FCF707FF4FF07F51FCF75E
:1034100000FF2146BDE81040FCF7FEBEDF59375FD4
:1034200092B0FDF721FFFFF777F8FEF7E5FDFEF715
:1034300001FEFEF71FFEFEF73DFEFFF703F8FEF765
:1034400037FD00201190304CCDF84000FDF728FCEE
:103450001199401A052815D3FDF722FC11902A482E
:10346000FEF758FDD4E90101CDE9000154F80C3B09
:1034700094E807000C3CFEF739FE244A111F081F90
:10348000FDF78AFAFDF70CFC1099401A0A28DDD3E3
:10349000FDF706FC1D4D1090083DA868FDF7DAF811
:1034A000834608916868FDF7D5F881468A46286802
:1034B000FDF7D0F8074688466069FDF7CBF805466A
:1034C0000E462069FDF7C6F8CDE90601E068FDF774
:1034D000C1F8CDE90401A068FDF7BCF8CDE902010F
:1034E0006068FDF7B7F8CDE900012068FDF7B2F894
:1034F0000B4608990246CDE90EB108A904A081E85F
:10350000E007FFF7F7F8A1E74800002018000020C7
:1035100025662C25662C25662C25662C25662C25F3
:10352000662C25662C25662C25660D0A00000000F9
:1035300070B50546FDF7FCF9044620F00040C0F1E7
:10354000FF40C00F08D025F00040C0F1FF40C00F81
:1035500004BF0120FFF71EF9204670BD01020203DF
:103560000405060708090A0B0C0D0E0F10100000C9
:103570000000000000000102030406070809000023
:103580000000010203040000A8350008000000202C
:103590004800000076270008F035000848000020A9
:1035A00020050000862700080000803F0000000082
:1035B000000000000000000000000000000000000B
:1035C00000000000010000001000000000000000EA
:1035D00000127A000000004000000000000000001F
:1035E00000000000000000000000000000000000DB
:04000005080000ED02
:00000001FF
