:020000040800F2
:10000000D8080020010100083B1B00085514000817
:10001000391B00089D060008351F0008000000007D
:10002000000000000000000000000000CF1E0008DB
:100030009F06000800000000CD1E0008D11E000829
:100040001B0100081B0100081B0100081B01000820
:100050001B0100081B0100081B0100081B01000810
:100060001B0100081B0100081B0100081B01000800
:100070001B0100081B0100081B0100081B010008F0
:100080001B0100081B0100081B0100081B010008E0
:100090001B0100081B0100081B0100081B010008D0
:1000A0001B0100081B0100081B0100081B010008C0
:1000B0001B0100081B0100081B0100081B010008B0
:1000C0001B0100081B0100081B0100081B010008A0
:1000D0001B0100081B0100081B0100081B01000890
:1000E0001B0100081B0100081B010008DFF80CD0F1
:1000F00000F0C2FA00480047751F0008D808002029
:100100000648804706480047FEE7FEE7FEE7FEE7B1
:10011000FEE7FEE7FEE7FEE7FEE7FEE7331F000827
:10012000ED000008202A04DB203A21FA02F0002129
:10013000704721FA02F3D040C2F1200291400843F7
:1001400019467047D2B201E000F8012B491EFBD2DC
:1001500070470022F6E710B513460A4604461946D2
:10016000FFF7F0FF204610BD80EA010210B502F053
:100170000043400022D04A001FD0010E01EB126163
:10018000C0F35600C2F3560240F4000042F40002ED
:10019000A0FB022000047F39140400D0401C50EA68
:1001A000124001D44000491EC2B20C0604EBD0102C
:1001B000401C4008802A02D003E0002010BD20F03F
:1001C0000100002900DA0020184310BD2DE9FE4F80
:1001D000804681EA0300C00F0C46009021F00041E8
:1001E00023F00045B8EB0200A94105D24046214664
:1001F00090461C460B46024623F00040104347D071
:10020000270DC7F30A00C3F30A510290401A019068
:1002100040286BDAC3F3130040F4801B0098924629
:1002200020B10023D2EB030A63EB0B0B0198594674
:10023000C0F14002504600F069F906460D465046AE
:100240005946019A00F071F910EB08006141002451
:1002500087EA115284EAE7731A4340D0009A62B3E6
:10026000019A012A4FEA075215DC001B61EB0201DB
:100270004FF0004202EA0752CDE90042001C41F56E
:10028000801132462B4600F0A8F903B0BDE8F08F8C
:1002900040462146F9E7001B61EB0201001C41F5D5
:1002A000801300185B412018A2F5001747EB0301EB
:1002B00040EAD570B6196D4111E06D084FEA360677
:1002C00045EAC0754FEA0752001B61EB0201001CB2
:1002D00041F5801149084FEA30000019514132467A
:1002E0002B4603B0BDE8F04F00F068B9009801223A
:1002F00040000023D0EB020263EBE073009821463C
:100300004FEAE074B8EB000061EB0401E9E783F029
:1003100000435BE781F0004158E72DE9FE4F81EA99
:10032000030404F0004421F0004100944FF0000B5E
:1003300023F0004350EA01045ED052EA03045BD08C
:10034000C3F30A54C1F30A552C44A4F2F3340194C4
:10035000A0FB0254C1F3130141F48011C3F3130352
:1003600043F4801301FB024400FB034E840A970A06
:1003700044EA815447EA8357A4FB076802958D0A33
:1003800005FB07854FEA932C04FB0C542705029DBF
:100390004FEA065847EA1637B5EB08056EEB070C2F
:1003A000870E920E47EA811742EA8312A7FB0201E9
:1003B000B6EB0B0164EB00042B0D43EA0C335E1823
:1003C00044EB1C50DA465146E7FB0201C5F3130427
:1003D0004FEA0B3343EA14534FEA0432019C43EAD9
:1003E0000603A4F10C040294009CCDE900B400F0D3
:1003F000F4F803B0BDE8F08F00200146F9E7C10F23
:1004000080EAE0700844CA079623002100F0A8B8EB
:100410000EB5C10F80EAE0700844CA07002140F21F
:1004200033438DE80E000A460B4600F0D6F803B0C1
:1004300000BD0EB540F2334102910021CDE900111B
:100440000A460B4600F0C9F803B000BDC1F30A52DA
:1004500010B5C1F3130140F2FF3341F480119A4209
:1004600001DA002010BD40F233439A42A2F2334237
:1004700003DC5242FFF756FE10BD904010BD00F065
:10048000004230F000400AD0C10D01F56071C0F3A8
:10049000160042EA0151C20840071143704700208C
:1004A0000146704730B5041E71F1000404DB4FF0C3
:1004B0000044404264EB0101141E73F1000405DBAB
:1004C0001C464FF00043524263EB0403994208BFBD
:1004D000904230BD01F0004330B421F0004150EAB9
:1004E000010206D00A0DA2F56072C1F31301002AC1
:1004F00002DC30BC00207047440F44EAC104C10054
:10050000E01830BC00EBC25000F021B8202A04DB18
:10051000203A00FA02F1002070479140C2F1200316
:1005200020FA03F3194390407047202A06DBCB17CB
:10053000203A41FA02F043EAE07306E041FA02F39E
:10054000D040C2F12002914008431946704700296B
:10055000A8BF7047401C490008BF20F00100704749
:1005600010B4B0FA80FC00FA0CF050EA010404BFA9
:1005700010BC704749B1CCF1200421FA04F411FAFF
:100580000CF118BF012121430843A3EB0C01CB1D43
:100590004FEA00614FEA102042BF002010BC7047B4
:1005A00000EBC35010440029A4BF10BC7047401C8E
:1005B000490008BF20F0010010BC704710B5141EA0
:1005C00073F1000408DA401C41F1000192185B410C
:1005D0001A4301D120F0010010BD2DE9F04D9246E3
:1005E0009B4611B1B1FA81F202E0B0FA80F22032FA
:1005F0009046FFF78BFF04460F4640EA0A0041EAA7
:100600000B0153465A46084313D0114653EA0100E2
:1006100019D0C8F140025046FFF784FD05460E464A
:10062000504659464246FFF771FF084305D0012066
:1006300004E020463946BDE8F08D0020054346EA37
:10064000E0762C4337430A986305E40AA0EB0800E0
:100650000022FD0A44EA47540A3002D50020014630
:10066000E9E7010510196941DDE90845001969410B
:10067000BDE8F04DA2E70000064C074D06E0E0683B
:1006800040F0010394E8070098471034AC42F6D3D9
:10069000FFF730FDC8280008E8280008FEE770478B
:1006A00072B6FEE770B5044600F0FEF80546601C21
:1006B00002D004480078044400F0F6F8401BA04241
:1006C000FAD370BD000000202DE9F84FDFF8B89193
:1006D0000024A9F1040B23460F2709F1040AABF10A
:1006E000040EC9E00125A5402A40AA427DD1674EEB
:1006F000D1F804C0ACEB0608B44532D014DCBCF130
:10070000030F3AD009DCBCF1000F2AD0BCF1010F75
:100710001CD0BCF1020F31D11DE0BCF1110F17D07C
:10072000BCF1120F2AD119E0B8F5881F19D006DCE8
:10073000B8F5803F15D0B8F5801F1FD111E0B8F58E
:10074000001F0ED0B8F5041F18D10AE0CB6815E0E1
:10075000CB681B1D12E0CB6808330FE0CB680C336D
:100760000CE08B682BB1012B4FF0080303D04561DF
:1007700004E0042302E0056100E00023FF2A01D821
:10078000064601E000F104064FEA840501D9A5F10F
:100790002005D6F8008007FA05FC28EA0C0803FAC1
:1007A00005F548EA0508C6F800804D68ED0062D5F9
:1007B000374DAE6946F00106AE61AD6924F003061F
:1007C00005F001050095334D06EB050CDCF80850EB
:1007D000A607360F07FA06F825EA0805DFF8B880FD
:1007E000404503D14FF0000817E044E0DFF8AC804B
:1007F000404502D14FF001080FE0DFF8A4804045EA
:1008000002D14FF0020808E0DFF89880404502D19D
:100810004FF0030801E04FF0040808FA06F848EA30
:100820000508CCF808804D68D9F80060ED024D4607
:1008300001D5164300E096432E604D68DAF800605B
:10084000AD02554601D5164300E096432E604D6833
:10085000DBF80060AD035D4601D5164300E096432A
:100860002E604D68DEF80060ED03754601D5164335
:1008700000E096432E60641C0D682A46E5407FF434
:1008800031AFBDE8F88F00000804014000001110EE
:10089000001002400000014000080140000C01402F
:1008A00000100140001401400148806870470000BA
:1008B0000000002070B5040025D094F83D0000250C
:1008C00020B984F83C50204600F07EFA242084F8B9
:1008D0003D002068016821F0010101602068016885
:1008E00041F4004101602068016821F40041016089
:1008F00000F0D6FB4D4A6168914201D84C4900E0B6
:100900004C49884201D2012070BD4B492368B0FB9D
:10091000F1F15E6826F03F060E435E606368934225
:1009200006D94FF4967359434FF47A73B1FBF3F140
:100930002368491C1E6A26F03F063143196261682C
:10094000914210D84900401EB0FBF1F2521CC2F394
:100950000B02042A01D2042022E0B0FBF1F0401C7B
:10096000C0F30B001CE0A268F2B301EBC10303EB80
:100970000116431EB3FBF6F35B1C43F480431B05D7
:1009800049D092B301EBC10202EB0111401EB0FB52
:10099000F1F0401CC0F30B0040F4804040F40040F4
:1009A0002168CA694CF6FF739A431043C861D4E9C1
:1009B000071001432068026822F0C0021143016061
:1009C000D4E9030101432068826848F2FF339A4367
:1009D00011438160D4E9050108432168CA6822F007
:1009E000FF021043C86001E00EE016E020680168D5
:1009F00041F0010101602564202084F83D00256359
:100A000084F83E50002070BD01EB4106431EB3FB4D
:100A1000F6F35B1CB3E70120C2E701EB4101401E86
:100A2000B0FBF1F0401CC0F30B00B7E7A08601005B
:100A300080841E0000093D0040420F002DE9FF4F59
:100A400083B00025DDE910799A4693460446DDF827
:100A500048800095FFF728FF064694F83D002028BF
:100A60007CD11923012288492046009600F008FE17
:100A70000028F5D194F83C0001286FD0012084F8BB
:100A80003C0020680168C90703D1016841F00101F9
:100A900001602068016821F400610160222084F86F
:100AA0003D00402084F83E0025646762A4F82A9047
:100AB000608D20857548E062CDE9008653465A4630
:100AC0002046049900F0DEFC00287CD1208DDFF860
:100AD000C091202768B1012814D00228206801683D
:100AE0001ED041F4806101602068416980690090F6
:100AF000BCE02068416981690091016841F400719E
:100B00000160B3E02068016821F48061016072B681
:100B10002068416981690091016841F400710AE02F
:100B200041F40061016072B62068416981690091F9
:100B3000016821F48061016062B697E0032865D8FE
:100B400001280CD0022843464FF0000249462046B7
:100B500000960BD000F094FDA8BB0CE091E032466B
:100B60004146204600F032FE68BB72E000F088FD8E
:100B700048BB72B633E02068016821F480610160EF
:100B800072B620680069616A0870606A401C606221
:100B9000208D401E2085608D401E60853D4846F2B8
:100BA000A8110068B0FBF1F0C0EBC00000EB8000C2
:100BB0000090401E009007D020684069C043400765
:100BC0000DD50098F5E727E044F8305F6773A5730B
:100BD000206940F02000206162B625731CE0206887
:100BE000016841F40071016020680069616A087061
:100BF000606A401C6062218D491E2185618D491EFD
:100C0000618562B621680969017026E03246414675
:100C1000204600F0DBFD18B1012007B0BDE8F08FE1
:100C200020680069616A0870606A401C6062208DFB
:100C3000401E81B22185608D401E6085206842691A
:100C4000D243520712D4032903D1016821F48061F1
:100C5000016020680069616A0870606A401C606217
:100C6000208D401E2085608D401E6085208D0028CF
:100C70007FF464AF84F83D7084F83E5084F83C50B3
:100C8000CBE70220C9E70000020010000000FFFFD0
:100C9000040001000C0000202DE9FF4F83B09A46AC
:100CA000DDE9119793460446DDF84080FFF7FCFD2F
:100CB000054694F83D0020287FD1192301224049A0
:100CC0002046009500F0DCFC002876D194F83C002A
:100CD000012872D0012084F83C0020680168C9070F
:100CE00003D1016841F0010101602068016821F42D
:100CF00000610160212084F83D00402084F83E001E
:100D000000262664C4F82480A4F82A90608D2085EB
:100D10002C48E062CDE9007553465A4620460499B6
:100D200000F02EFC70B930E02A463946204600F02B
:100D300085FD58B1206C042804D12068016841F475
:100D400000710160012007B0BDE8F08F606A216882
:100D500000780861606A401C6062218D491E89B27A
:100D60002185628D521E628522685369DB435B07D1
:100D70000BD469B100781061606A401C6062208DFC
:100D8000401E2085608D401E6085208D0028CBD1BF
:100D90002A463946204600F047FC0028CAD154F8BC
:100DA0003D0B016841F400710160202004F81E0928
:100DB000E67766770020C6E7FFE70220C3E700007A
:100DC000020010000000FFFF30B585B00021009147
:100DD0000191029103911E4D03681E4C12210322C2
:100DE0001D48AB4216D1A36943F00803A361A36970
:100DF000039203F008030493C023CDE90031694650
:100E0000FFF762FCE06940F40010E061E06900F483
:100E1000001019E0114DAB4217D1A36943F008034C
:100E2000A361A369039203F0080304934FF44063A2
:100E3000CDE900316946FFF747FCE06940F48000E6
:100E4000E061E06900F48000049005B030BD00006E
:100E50000054004000100240000C014000580040C7
:100E600002488168027811448160704700000020C8
:100E7000074810B5016841F010010160032000F03F
:100E800067F80F2000F006F800F024F8002010BDED
:100E90000020024070B50D4D04464FF47A71287859
:100EA000B1FBF0F00A490968B1FBF0F000F0BEFABE
:100EB00048B9102C07D200222146501E00F028F815
:100EC00000206C6070BD012070BD0000000000209B
:100ED0000C0000200C4808B5816941F001018161D6
:100EE000816901F001010091C16941F08051C16146
:100EF000C06900F0805000900448416821F0E06132
:100F000041F00071416008BD001002400000014046
:100F1000F0B40E4B1B680C46C3F30223C3F1070564
:100F2000042D00D90425191D072901D2002300E052
:100F3000DB1E012606FA05F1491E214099409E401C
:100F4000761E16403143F0BC00F0F5BF0CED00E01A
:100F5000064900F0070208684FF6FF03184040EA10
:100F60000220034A10430860704700000CED00E0C7
:100F70000000FA052DE9F0470F46050061D0434E09
:100F8000306800F00700B84209D2306820F007004E
:100F900038433060306800F00700B84251D128680B
:100FA0003B4C810712D5400703D5606840F4E060F0
:100FB00060602878000703D5606840F46050606086
:100FC0006068A96820F0F000084360602878C007D6
:100FD00028D06868012810D02168022810D089071D
:100FE00000292EDA616821F0030101436160FFF7F7
:100FF0005BFC804641F288390DE021688903EFE708
:101000008901EDE7FFF750FCA0EB0801494502D943
:101010000320BDE8F0876068696800F00C00B0EB61
:10102000810FEFD1306800F00700B8420BD930686B
:1010300020F0070038433060306800F00700B84205
:1010400001D00120E5E72878400705D56068E96808
:1010500020F4E060084360602878000706D56068E7
:10106000296920F4605040EAC100606000F028F86F
:101070006168084AC1F30311515CC8400649086021
:1010800006480068FFF706FF0020C2E70020024084
:1010900000100240842000080C0000200400002002
:1010A0000448054900684968044AC1F30221515CBB
:1010B000C84070470C000020001002409420000837
:1010C0000E4A51680E4801F00C03042B11D0082B76
:1010D0000FD10C48C1F38343C903C05C0AD55168E2
:1010E000084AC1F34041921E515C054A5043B0FB8F
:1010F000F1F0704704494843704700000010024077
:1011000000127A007420000800093D002DE9F84F14
:10111000040070D02078C04DC00749D06868C0F383
:101120008100012807D06868C0F38100022809D136
:101130006868C00306D52868800339D56068002830
:10114000E7D035E06068B0F5803F0BD010B1B0F566
:10115000A02F11D0286820F480302860286820F45F
:10116000802002E0286840F480302860606890B1F8
:10117000FFF79AFB06460AE0286840F480202860C2
:10118000F0E700BFFFF790FB801B642873D8286846
:101190008003F7D50CE0FFF787FB064605E000BFAC
:1011A000FFF782FB801B6428F0D828688003F7D4FF
:1011B00020789A4E80074FF001094FF0000839D58A
:1011C000686810F00C0F07D06868C0F3810002282F
:1011D00009D16868C00306D42868800714D520693F
:1011E000012808D110E02069B0B1C6F80090FFF7DF
:1011F0005BFB074605E00AE1FFF756FBC01B022830
:10120000C4D828688007F7D52868616920F0F800FD
:1012100040EAC10028600DE0C6F80080FFF744FBFB
:10122000074604E0FFF740FBC01B022823D82868CC
:101230008007F7D4207800072CD57948A169D9B167
:10124000C0F80090FFF730FB074604E0FFF72CFBE7
:10125000C01B02280FD8686A8007F7D571484FF481
:10126000FA510068B0FBF1F0009000BF0098411EF9
:101270000091FAD20EE080E0C0F80080FFF714FB86
:10128000074604E0FFF710FBC01B022875D8686A08
:101290008007F7D42078400760D5E8690027C000B0
:1012A00008D4E86940F08050E861E869012700F05F
:1012B000805000905C480168C90513D401688346DA
:1012C00041F480710160FFF7EFFA824606E000BF4B
:1012D000FFF7EAFAA0EB0A0064284ED8DBF800001A
:1012E000C005F5D5E06801280AD008B1052813D05B
:1012F000286A20F001002862286A20F0040002E039
:10130000286A40F001002862E06841F2883B98B109
:10131000FFF7CAFA82460BE0286A40F00400286210
:10132000EEE700BFFFF7C0FAA0EB0A0159455AD813
:10133000286A8007F6D50CE0FFF7B6FA824605E08A
:10134000FFF7B2FAA0EB0A0159454CD8286A80078A
:10135000F6D41FB1E86920F08050E861E06988B3F5
:101360006968C1F38101022944D00228C6F860806F
:1013700004D0FFF799FA044638E034E0FFF794FA16
:10138000074604E0FFF790FAC01B02282BD8286814
:101390008001F7D4206AB0F5803F05D16868A16864
:1013A00020F4003008436860D4E908010843696804
:1013B00021F4741108436860C6F86090FFF774FA6E
:1013C000044606E025E000BFFFF76EFA001B022886
:1013D00009D828688001F7D51BE000BFFFF764FA41
:1013E000001B022802D90320BDE8F88F286880017D
:1013F000F4D40EE00128F7D06868226A00F4803146
:10140000914204D1616A00F47010884201D0012039
:10141000EAE70020E8E70000001002400000424236
:10142000800442420C0000200070004010B5401EB5
:10143000B0F1807F01D3012010BD4FF0E024606146
:101440000F21601700F077FD0020A06107202061C8
:10145000002010BDFEE701684A69D24352050FD44F
:101460006FF480624A61002140F8301F20224273ED
:101470008173026942F00402026101730120704726
:10148000002070472DE9F84F0446006889460B9DFF
:1014900001689846174641F4806101602068016840
:1014A00041F48071016000954FF0011B0022594604
:1014B00020460A9B00F0E4F84FF4007A40B120681F
:1014C0000068C00501D5C4F840A00320BDE8F88F2E
:1014D000216809F0FE0008612B46284920460A9A37
:1014E00000F016F9F0BB20684169806900902A4637
:1014F00020460A9900F0A2F940B1206C04283AD1A4
:101500002068016841F40071016034E0FEB2B8F176
:10151000010F09D02168380A08612A4620460A9935
:1015200000F08CF90028E8D1206806612A462046A0
:101530000A9900F083F90028DFD12068016841F49E
:101540008071016000950022594620460A9B00F0F8
:1015500097F80028B3D1216809F0FF0040F001009E
:10156000086100E007E02B46044920460A9A00F093
:10157000CFF80028AAD00120A8E70000020001004F
:101580002DE9F843044600680D46DDE90897016837
:101590009846164641F4807101604B4600224FF098
:1015A00001112046009700F06BF848B120680068F0
:1015B000C00502D54FF4007020640320BDE8F88315
:1015C000216805F0FE0008613B464A461549204661
:1015D00000F09EF888B920684169806900903A4619
:1015E0004946204600F02AF948B1206C042804D16D
:1015F0002068016841F4007101600120DEE7F5B266
:10160000B8F1010F09D02168300A08613A4649460D
:10161000204600F013F90028E7D12068056100207A
:10162000CCE700000200010070B516460D460446E6
:101630001EE02046FFF70FFF08B1012070BD681CB7
:1016400016D0FFF731F9801BA84200D885B9206871
:101650004069C04340070BD5002044F8300F2021DB
:101660006173A073216941F0200121612073E4E7D7
:1016700020684069C0434007DBD4002070BD0000F3
:101680002DE9F047984617460D460446C1F3074634
:10169000DDF820902AE000BFB8F1FF3F26D0FFF729
:1016A00003F9A0EB0901414502D8B8F1000F1DD1A3
:1016B0002068012E16D0806925EA00000004000C85
:1016C00012D00020B84211D1002044F8300F202160
:1016D0006173A073216941F0200121612073012011
:1016E000BDE8F0874069E7E70120EBE72068012EBD
:1016F0000AD0806925EA00000004000C06D0002012
:10170000B842C9D00020EBE74069F3E70120F7E7D2
:101710002DE9F047984616460D4604464FF000095D
:101720004FF0200AC1F3074723E020684069C04317
:10173000400515D42068016841F4007101602168FA
:101740006FF480604861C4F8309084F83DA084F85C
:101750003E90216C41F00401216484F83C9021E02A
:10176000701C06D0FFF7A0F8A0EB0800B04203D829
:1017700016B1012F1FD021E02068012F15D08069FC
:1017800025EA00000004000C18D000BF44F8309F88
:1017900084F80DA084F80E90216941F020012161A8
:1017A00084F80C900120BDE8F087406925EA00002C
:1017B0000004000CEAD12068406901E020688069DB
:1017C00025EA00000004000CAFD1ECE72DE9F04160
:1017D000002590460E460446202728E04069C04375
:1017E000C0060CD454F8301B6FF01000486144F868
:1017F00010596777A577206A2062257714E0FFF7F4
:1018000053F8A0EB0800B04200D886B920684069C0
:10181000C04340060BD544F8305F6773A573206959
:1018200040F02000206125730120BDE8F081206890
:101830004169C9434906D1D40020F6E770B5164680
:101840000D4604461EE02046FFF705FE08B10120C4
:1018500070BD681C16D0FFF727F8801BA84200D87F
:1018600085B920684069C04300060BD5002044F8C4
:10187000300F20216173A073216941F020012161A3
:101880002073E4E720684069C0430006DBD40020F1
:1018900070BD000001480068704700001000002083
:1018A000014840687047000010000020014880682F
:1018B00070470000100000200148C0687047000019
:1018C000100000200148006970470000100000204F
:1018D00001484069704700001000002001488069FD
:1018E000704700001000002010B580216B2000F030
:1018F000B3F86420FEF7D6FE00216B2000F0ACF8B0
:1019000018211B2000F0A8F80021BDE810401C2081
:1019100000F0A2B81FB54FF47A73012203A98DE835
:101920000E0013460246D0210348FFF787F89DF8C2
:101930000C0004B010BD0000800000202DE9F04133
:101940003C20FFF7E7FF04463B20FFF7E3FF44EAB4
:10195000002004B23E20FFF7DDFF05463D20FFF7E3
:10196000D9FF45EA002006B24020FFF7D3FF054625
:101970003F20FFF7CFFF45EA002005B22046FEF7E3
:101980003EFD304F3946FEF7EFFB2F4C20603046CE
:10199000FEF735FD3946FEF7E7FB60602846FEF7A7
:1019A0002EFD3946FEF7E0FBA0604220FFF7B2FFB4
:1019B00005464120FFF7AEFF45EA002000B24FF494
:1019C000AA7190FBF1F0FEF723FD204A204BFEF7B1
:1019D000FDFBFEF77FFDA0614420FFF79BFF05465E
:1019E0004320FFF797FF45EA002007B24620FFF7A4
:1019F00091FF05464520FFF78DFF45EA002006B21E
:101A00004820FFF787FF05464720FFF783FF45EA99
:101A1000002005B23846FEF7F2FC0E4F3946FEF7BD
:101A2000A3FBE0603046FEF7EAFC3946FEF79CFB7C
:101A300020612846FEF7E3FC3946FEF795FB60611E
:101A4000BDE8F081D5FF7F3810000020A4703D0A6A
:101A5000D7434240D6FF793D03B583B04FF47A7344
:101A6000012204A98DE80E0013460246D021024847
:101A7000FFF712F905B000BD800000200D4808B541
:101A8000816941F020018161816901F020010091AB
:101A9000816941F008018161816901F008010091CB
:101AA000816941F004018161806900F004000090C7
:101AB00008BD0000001002400D4810B50B49016040
:101AC0000C49416000214FF480428160C0E903125B
:101AD00041618161C1610162FEF7ECFE002803D023
:101AE000BDE81040FEF7DCBD10BD00000054004012
:101AF0002C000020A08601000D4810B50B490160A4
:101B00000C49416000214FF480428160C0E903121A
:101B100041618161C1610162FEF7CCFE002803D002
:101B2000BDE81040FEF7BCBD10BD000000580040ED
:101B300080000020A0860100FEE7FEE7F0B57F28C8
:101B40002AD83F2928D88418802C02D9C0F18002D5
:101B5000D2B2CC18402C02D9C1F14003DBB201262D
:101B6000DFF838E087180B4414E001F0070206FAAA
:101B700002F5CA0804460EEBC21207E012F804C0D0
:101B80002CEA050C02F804C0641CE4B2A742F5D8A4
:101B9000491CC9B28B42E8D8F0BD0000D400002037
:101BA00010B500204FF47A720021491C89B291428D
:101BB000FBD3401C80B29042F6D3AE2000F066F911
:101BC000D52000F063F9802000F060F9A82000F033
:101BD0005DF93F2000F05AF9D32000F057F90020BA
:101BE00000F054F9402000F051F9A12000F04EF926
:101BF000C82000F04BF9DA2000F048F9122000F07C
:101C000045F9812000F042F9CF2000F03FF9D920BA
:101C100000F03CF9F12000F039F9DB2000F036F952
:101C2000302000F033F9A42000F030F9A62000F0B5
:101C30002DF98D2000F02AF9142000F027F9BDE8D5
:101C40001040AF2000F022B90246012000E05043CE
:101C5000491EFCD2704710B50C4640F0B00000F0B1
:101C600015F9102040EA141000F010F904F00F00EC
:101C7000BDE8104000F00AB908B5082B0DD0062BBE
:101C80000AD10A4B02EB420203EB4202C03A009235
:101C90000823062200F06AF808BD054B03EB021288
:101CA000A2F50072102300920822F3E78C260008A8
:101CB0009C2000082DE9F84F14461D46DDE90BA6CF
:101CC0008B4607460022134620462946DDF8288029
:101CD000FEF7E8FB334605D82B2259463846FFF776
:101CE000CBFF06E02D2259463846FFF7C5FF85F0A9
:101CF000004520462946FEF7A9FB8146B8194A4609
:101D0000C0B243465946009600F088F808F1010039
:101D100000FB0670C0B233462E225946FFF7ACFFD7
:101D20004846FEF786FB22462B46FEF7F3FA0546A9
:101D30000C4651460A20FFF787FF8146FEF779FBE4
:101D40002A462346FEF7E9FAFEF780FBB0FBF9F2DC
:101D500009FB120208F1020000FB0670C0B25346F4
:101D60005946009600F05AF8BDE8F88F2DE9FC4F6F
:101D70001F4615460C4606467F284AD83F2C48D8B1
:101D8000FFF7DCFE781EC117002300EB5170012124
:101D9000DFF884B004F0070901EBE00737E000202A
:101DA00031E031187F2930D803EBD40ABAF1070F9C
:101DB0002FD80BEBCA1E03FB05F21EF801C00192DF
:101DC000DDF82C808044CDF8008012F8082002FA5B
:101DD00009F24CEA020C0AF101020EF801C0072ACE
:101DE0000FD80EEB0108DDE900C198F8802011F84A
:101DF0000CC0C9F108012CFA01FC42EA0C0288F877
:101E00008020401CC0B2A842CBD35B1CDBB29F42F7
:101E1000C5DCBDE8FC8F0000D40000202DE9F047B0
:101E200000241D4690468A4681460A27089E14E0F3
:101E3000291B0A20491EFFF707FFB8FBF0F0B0FB93
:101E4000F7F107FB110204FB0690C0B2334651467E
:101E50003032FFF711FF641CE4B2AC42E8D3BDE8B6
:101E6000F087000070B5084D002400212046FFF7E0
:101E7000F2FE05EBC410802100F01AF8641CE4B2F5
:101E8000082CF2D370BD0000D400002001B584B04E
:101E900001214FF4FA7204A88DE807000B460022D6
:101EA00078210248FEF7F8FE05B000BD2C000020A6
:101EB0000EB54FF0FF328DE8070001234022782154
:101EC0000148FEF7E9FE0EBD2C0000207047704768
:101ED000FEF7C6BF30B58FB028216846FEF739F946
:101EE00014210AA8FEF735F901210804CDE90010F4
:101EF0000024029402250491CDE907504FF4E0102C
:101F000009906846FFF702F908B172B6FEE70F20A4
:101F1000CDE90A054FF48060CDE90C4002210AA802
:101F20000E94FFF727F8002801D072B6FEE70FB035
:101F300030BD7047FEE70907090E002804DB00F1F9
:101F4000E02080F80014704700F00F0000F1E0205E
:101F500080F8141D704702E008C8121F08C1002A4B
:101F6000FAD170477047002001E001C1121F002A1A
:101F7000FBD170470EB5FEF77BFFFFF7ABFFFFF716
:101F80007DFDFFF799FDFFF7B7FDFFF709FEFFF7AE
:101F9000ABFC0325FFF7D2FCFFF77CFC0446FFF700
:101FA0007FFC8146FFF782FC8246FFF797FC834661
:101FB000FFF782FC8046FFF785FC0746FFF788FCA9
:101FC00006462046FEF75BFA0624CDE900540B4690
:101FD0000246002108460294FFF76CFE4846FEF7D1
:101FE0004EFACDE9005402460B460A210020029425
:101FF000FFF760FE5046FEF742FACDE90054024674
:102000000B46142100200294FFF754FE5846FEF7B9
:1020100036FACDE9005402460B461E2100200294F8
:10202000FFF748FE4046FEF72AFACDE90054024683
:102030000B46282100200294FFF73CFE3846FEF7AD
:102040001EFACDE9005402460B46322100200294CC
:10205000FFF730FE3046FEF712FACDE90054024693
:102060000B463C2100200294FFF724FEFFF7FAFE06
:1020700090E7010202030405060708090A0B0C0D8C
:102080000E0F101000000000000000000102030409
:102090000607080900000000010203040000000018
:1020A000000000000000000000000000000000F838
:1020B00000000000000000333000000000160E0099
:1020C000160E0000000000000000000040C0784034
:1020D000C0784000043F04043F040400007088FC02
:1020E00008300000001820FF211E0000F008F0005A
:1020F000E018000000211C031E211E0000F00888CB
:10210000700000001E212324192721100000001652
:102110000E0000000000000000000000000000E0D1
:1021200018040200000000071820400000020418F4
:10213000E00000000040201807000000404080F050
:10214000804040000202010F01020200000000F086
:10215000000000000101011F01010100000000005A
:102160000000000000B0700000000000000000004F
:102170000000000000010101010101010000000058
:1021800000000000003030000000000000000000EF
:1021900080601804006018060100000000E01008CC
:1021A0000810E000000F102020100F00001010F8A1
:1021B000000000000020203F2020000000700808E0
:1021C0000888700000302824222130000030088860
:1021D000884830000018202020110E000000C02088
:1021E00010F8000000070424243F240000F80888A9
:1021F000880808000019212020110E0000E0108836
:1022000088180000000F112020110E000038080867
:10221000C83808000000003F000000000070880877
:1022200008887000001C222121221C0000E01008F8
:102230000810E0000000312222110F00000000C051
:10224000C00000000000003030000000000000C0AE
:10225000C0000000000080B070000000000080405E
:1022600020100800000102040810200040404040F7
:10227000404040000404040404040400000810204A
:10228000408000000020100804020100007048088F
:102290000808F0000000003036010000C030C828F7
:1022A000E810E0000718272423140B000000C038B2
:1022B000E0000000203C23020227382008F888882C
:1022C00088700000203F202020110E00C030080838
:1022D00008083800071820202010080008F808080F
:1022E0000810E000203F202020100F0008F8888808
:1022F000E8081000203F20202320180008F88888D4
:10230000E8081000203F200003000000C03008084B
:102310000838000007182020221E020008F80800D4
:102320000008F808203F210101213F20000808F89B
:10233000080800000020203F2020000000000808BE
:10234000F8080800C08080807F00000008F888C07E
:1023500028180800203F20012638200008F808002F
:1023600000000000203F20202020300008F8F80066
:10237000F8F80800203F003F003F200008F830C078
:102380000008F808203F200007183F00E010080868
:102390000810E0000F10202020100F0008F8080897
:1023A0000808F000203F210101010000E0100808AA
:1023B0000810E0000F18242438504F0008F88888CF
:1023C00088887000203F2000030C302000708808AF
:1023D000080838000038202121221C00180808F8BD
:1023E000080818000000203F2000000008F808003E
:1023F0000008F808001F202020201F00087888000F
:1024000000C83808000007380E010000F80800F87E
:102410000008F800033C0700073C03000818688028
:102420008068180820302C03032C30200838C8009E
:10243000C83808000000203F2000000010080808ED
:10244000C83808002038262120201800000000FE8F
:10245000020202000000007F40404000000C30C03B
:1024600000000000000000010638C0000002020267
:10247000FE000000004040407F00000000201008E7
:102480000408102000000000000000000000000010
:10249000000000008080808080808080000204082E
:1024A000000000000000000000000000000080802C
:1024B000808000000019242222223F2008F800809A
:1024C00080000000003F112020110E00000000805D
:1024D00080800000000E11202020110000000080EC
:1024E0008088F800000E112020103F20000080801E
:1024F00080800000001F222222221300008080F032
:10250000888888180020203F20200000000080805C
:1025100080808000006B94949493600008F80080A1
:1025200080800000203F210000203F2000809898FC
:10253000000000000020203F20200000000000805C
:102540009898000000C08080807F000008F800009C
:1025500080808000203F24022D302000000808F8F1
:10256000000000000020203F2020000080808080AC
:1025700080808000203F20003F20003F00808000BE
:102580008080000000203F2100203F20000080804C
:1025900080800000001F202020201F0080800080FD
:1025A0008000000080FFA12020110E0000000080AC
:1025B00080808000000E112020A0FF80808080009D
:1025C0008080800020203F212000010000008080CA
:1025D000808080000033242424241900008080E0BF
:1025E000808000000000001F20200000808000008C
:1025F00000808000001F202020103F20808080006D
:102600000080808000010E3008060100808000807C
:10261000008080800F300C030C300F0000808000A1
:10262000808080000020312E0E31200080808000CC
:102630000080808080818E7018060100008080807C
:10264000808080000021302C22213000000000001A
:10265000807C020200000000003F404000000000BB
:10266000FF00000000000000FF0000000002027CEC
:10267000800000000040403F00000000008040401B
:102680008000008000000000000101000000000048
:1026900000000000002F00000000070007000014E9
:1026A0007F147F1400242A7F2A12002313086462F7
:1026B00000364955225000000007000000001C228F
:1026C0004100000041221C000014083E08140008CC
:1026D000083E0808000000A060000008080808087C
:1026E000000060600000002010080402003E514914
:1026F000453E0000427F40000042615149460021B2
:1027000041454B31001814127F10002745454539CB
:10271000003C4A4949300001710905030036494926
:10272000493600064949291E0000363600000000DF
:10273000563600000008142241000014141414142A
:10274000000041221408000201510906003E4955CB
:10275000592E007C1211127C007F49494936003EF7
:1027600041414122007F4141221C007F49494941AA
:10277000007F09090901003E4149497A007F0808A4
:10278000087F0000417F4100002040413F01007F61
:1027900008142241007F40404040007F020C027F2D
:1027A000007F0408107F003E4141413E007F09093F
:1027B0000906003E4151215E007F09192946004665
:1027C000494949310001017F0101003F4040403F3C
:1027D000001F2040201F003F4038403F0063140886
:1027E0001463000708700807006151494543000061
:1027F0007F414100000204081020000041417F0099
:102800000004020102040040404040400000010278
:102810000400002054545478007F48444438003861
:102820004444442000384444487F003854545418E9
:1028300000087E0901020018A4A4A47C007F0804FB
:1028400004780000447D4000004080847D00007FCB
:10285000102844000000417F4000007C04180478E8
:10286000007C0804047800384444443800FC2424E4
:1028700024180018242418FC007C080404080048CC
:102880005454542000043F444020003C4040207CED
:10289000001C2040201C003C4030403C00442810DC
:1028A0002844001CA0A0A07C004464544C440000B8
:1028B000087F41000000007F00000000417F080009
:1028C0000008040810080000E828000800000020A4
:1028D0002C000000561F0008142900082C000020BE
:1028E000AC080000661F0008010000001000000096
:1028F0000000000000127A0000000000000000004C
:1029000000000000000000000000000000000000C7
:0429100000000000C3
:04000005080000ED02
:00000001FF
